{
  "contractName": "Color",
  "abi": [
    {
      "inputs": [],
      "payable": false,
      "stateMutability": "nonpayable",
      "type": "constructor"
    },
    {
      "anonymous": false,
      "inputs": [
        {
          "indexed": true,
          "internalType": "address",
          "name": "owner",
          "type": "address"
        },
        {
          "indexed": true,
          "internalType": "address",
          "name": "approved",
          "type": "address"
        },
        {
          "indexed": true,
          "internalType": "uint256",
          "name": "tokenId",
          "type": "uint256"
        }
      ],
      "name": "Approval",
      "type": "event"
    },
    {
      "anonymous": false,
      "inputs": [
        {
          "indexed": true,
          "internalType": "address",
          "name": "owner",
          "type": "address"
        },
        {
          "indexed": true,
          "internalType": "address",
          "name": "operator",
          "type": "address"
        },
        {
          "indexed": false,
          "internalType": "bool",
          "name": "approved",
          "type": "bool"
        }
      ],
      "name": "ApprovalForAll",
      "type": "event"
    },
    {
      "anonymous": false,
      "inputs": [
        {
          "indexed": true,
          "internalType": "address",
          "name": "from",
          "type": "address"
        },
        {
          "indexed": true,
          "internalType": "address",
          "name": "to",
          "type": "address"
        },
        {
          "indexed": true,
          "internalType": "uint256",
          "name": "tokenId",
          "type": "uint256"
        }
      ],
      "name": "Transfer",
      "type": "event"
    },
    {
      "constant": false,
      "inputs": [
        {
          "internalType": "address",
          "name": "to",
          "type": "address"
        },
        {
          "internalType": "uint256",
          "name": "tokenId",
          "type": "uint256"
        }
      ],
      "name": "approve",
      "outputs": [],
      "payable": false,
      "stateMutability": "nonpayable",
      "type": "function"
    },
    {
      "constant": true,
      "inputs": [
        {
          "internalType": "address",
          "name": "owner",
          "type": "address"
        }
      ],
      "name": "balanceOf",
      "outputs": [
        {
          "internalType": "uint256",
          "name": "",
          "type": "uint256"
        }
      ],
      "payable": false,
      "stateMutability": "view",
      "type": "function"
    },
    {
      "constant": true,
      "inputs": [
        {
          "internalType": "uint256",
          "name": "",
          "type": "uint256"
        }
      ],
      "name": "colorToOwner",
      "outputs": [
        {
          "internalType": "address",
          "name": "",
          "type": "address"
        }
      ],
      "payable": false,
      "stateMutability": "view",
      "type": "function"
    },
    {
      "constant": true,
      "inputs": [
        {
          "internalType": "uint256",
          "name": "",
          "type": "uint256"
        }
      ],
      "name": "colors",
      "outputs": [
        {
          "internalType": "string",
          "name": "",
          "type": "string"
        }
      ],
      "payable": false,
      "stateMutability": "view",
      "type": "function"
    },
    {
      "constant": true,
      "inputs": [
        {
          "internalType": "uint256",
          "name": "tokenId",
          "type": "uint256"
        }
      ],
      "name": "getApproved",
      "outputs": [
        {
          "internalType": "address",
          "name": "",
          "type": "address"
        }
      ],
      "payable": false,
      "stateMutability": "view",
      "type": "function"
    },
    {
      "constant": true,
      "inputs": [
        {
          "internalType": "address",
          "name": "owner",
          "type": "address"
        },
        {
          "internalType": "address",
          "name": "operator",
          "type": "address"
        }
      ],
      "name": "isApprovedForAll",
      "outputs": [
        {
          "internalType": "bool",
          "name": "",
          "type": "bool"
        }
      ],
      "payable": false,
      "stateMutability": "view",
      "type": "function"
    },
    {
      "constant": true,
      "inputs": [],
      "name": "name",
      "outputs": [
        {
          "internalType": "string",
          "name": "",
          "type": "string"
        }
      ],
      "payable": false,
      "stateMutability": "view",
      "type": "function"
    },
    {
      "constant": true,
      "inputs": [
        {
          "internalType": "uint256",
          "name": "tokenId",
          "type": "uint256"
        }
      ],
      "name": "ownerOf",
      "outputs": [
        {
          "internalType": "address",
          "name": "",
          "type": "address"
        }
      ],
      "payable": false,
      "stateMutability": "view",
      "type": "function"
    },
    {
      "constant": false,
      "inputs": [
        {
          "internalType": "address",
          "name": "from",
          "type": "address"
        },
        {
          "internalType": "address",
          "name": "to",
          "type": "address"
        },
        {
          "internalType": "uint256",
          "name": "tokenId",
          "type": "uint256"
        }
      ],
      "name": "safeTransferFrom",
      "outputs": [],
      "payable": false,
      "stateMutability": "nonpayable",
      "type": "function"
    },
    {
      "constant": false,
      "inputs": [
        {
          "internalType": "address",
          "name": "from",
          "type": "address"
        },
        {
          "internalType": "address",
          "name": "to",
          "type": "address"
        },
        {
          "internalType": "uint256",
          "name": "tokenId",
          "type": "uint256"
        },
        {
          "internalType": "bytes",
          "name": "_data",
          "type": "bytes"
        }
      ],
      "name": "safeTransferFrom",
      "outputs": [],
      "payable": false,
      "stateMutability": "nonpayable",
      "type": "function"
    },
    {
      "constant": false,
      "inputs": [
        {
          "internalType": "address",
          "name": "to",
          "type": "address"
        },
        {
          "internalType": "bool",
          "name": "approved",
          "type": "bool"
        }
      ],
      "name": "setApprovalForAll",
      "outputs": [],
      "payable": false,
      "stateMutability": "nonpayable",
      "type": "function"
    },
    {
      "constant": true,
      "inputs": [
        {
          "internalType": "bytes4",
          "name": "interfaceId",
          "type": "bytes4"
        }
      ],
      "name": "supportsInterface",
      "outputs": [
        {
          "internalType": "bool",
          "name": "",
          "type": "bool"
        }
      ],
      "payable": false,
      "stateMutability": "view",
      "type": "function"
    },
    {
      "constant": true,
      "inputs": [],
      "name": "symbol",
      "outputs": [
        {
          "internalType": "string",
          "name": "",
          "type": "string"
        }
      ],
      "payable": false,
      "stateMutability": "view",
      "type": "function"
    },
    {
      "constant": true,
      "inputs": [
        {
          "internalType": "uint256",
          "name": "index",
          "type": "uint256"
        }
      ],
      "name": "tokenByIndex",
      "outputs": [
        {
          "internalType": "uint256",
          "name": "",
          "type": "uint256"
        }
      ],
      "payable": false,
      "stateMutability": "view",
      "type": "function"
    },
    {
      "constant": true,
      "inputs": [
        {
          "internalType": "address",
          "name": "owner",
          "type": "address"
        },
        {
          "internalType": "uint256",
          "name": "index",
          "type": "uint256"
        }
      ],
      "name": "tokenOfOwnerByIndex",
      "outputs": [
        {
          "internalType": "uint256",
          "name": "",
          "type": "uint256"
        }
      ],
      "payable": false,
      "stateMutability": "view",
      "type": "function"
    },
    {
      "constant": true,
      "inputs": [
        {
          "internalType": "uint256",
          "name": "tokenId",
          "type": "uint256"
        }
      ],
      "name": "tokenURI",
      "outputs": [
        {
          "internalType": "string",
          "name": "",
          "type": "string"
        }
      ],
      "payable": false,
      "stateMutability": "view",
      "type": "function"
    },
    {
      "constant": true,
      "inputs": [],
      "name": "totalSupply",
      "outputs": [
        {
          "internalType": "uint256",
          "name": "",
          "type": "uint256"
        }
      ],
      "payable": false,
      "stateMutability": "view",
      "type": "function"
    },
    {
      "constant": false,
      "inputs": [
        {
          "internalType": "address",
          "name": "from",
          "type": "address"
        },
        {
          "internalType": "address",
          "name": "to",
          "type": "address"
        },
        {
          "internalType": "uint256",
          "name": "tokenId",
          "type": "uint256"
        }
      ],
      "name": "transferFrom",
      "outputs": [],
      "payable": false,
      "stateMutability": "nonpayable",
      "type": "function"
    },
    {
      "constant": false,
      "inputs": [
        {
          "internalType": "string",
          "name": "_color",
          "type": "string"
        }
      ],
      "name": "mint",
      "outputs": [],
      "payable": false,
      "stateMutability": "nonpayable",
      "type": "function"
    },
    {
      "constant": true,
      "inputs": [
        {
          "internalType": "address",
          "name": "_owner",
          "type": "address"
        }
      ],
      "name": "getColorsByOwner",
      "outputs": [
        {
          "internalType": "string[]",
          "name": "",
          "type": "string[]"
        }
      ],
      "payable": false,
      "stateMutability": "view",
      "type": "function"
    }
  ],
  "bytecode": "0x60806040523480156200001157600080fd5b506040518060400160405280600581526020017f436f6c6f720000000000000000000000000000000000000000000000000000008152506040518060400160405280600581526020017f434f4c4f520000000000000000000000000000000000000000000000000000008152508181620000986301ffc9a760e01b6200011c60201b60201c565b620000b06380ac58cd60e01b6200011c60201b60201c565b620000c863780e9d6360e01b6200011c60201b60201c565b8160099080519060200190620000e0929190620001f4565b5080600a9080519060200190620000f9929190620001f4565b5062000112635b5e139f60e01b6200011c60201b60201c565b5050505062000318565b63ffffffff60e01b817bffffffffffffffffffffffffffffffffffffffffffffffffffffffff1916141562000188576040517f08c379a00000000000000000000000000000000000000000000000000000000081526004016200017f90620002e5565b60405180910390fd5b6001600080837bffffffffffffffffffffffffffffffffffffffffffffffffffffffff19167bffffffffffffffffffffffffffffffffffffffffffffffffffffffff1916815260200190815260200160002060006101000a81548160ff02191690831515021790555050565b828054600181600116156101000203166002900490600052602060002090601f016020900481019282601f106200023757805160ff191683800117855562000268565b8280016001018555821562000268579182015b82811115620002675782518255916020019190600101906200024a565b5b5090506200027791906200027b565b5090565b620002a091905b808211156200029c57600081600090555060010162000282565b5090565b90565b6000620002b2601c8362000307565b91507f4552433136353a20696e76616c696420696e74657266616365206964000000006000830152602082019050919050565b600060208201905081810360008301526200030081620002a3565b9050919050565b600082825260208201905092915050565b612fe080620003286000396000f3fe608060405234801561001057600080fd5b506004361061012c5760003560e01c806370a08231116100ad578063bd11f69d11610071578063bd11f69d14610367578063c87b56dd14610397578063d85d3d27146103c7578063d96f8200146103e3578063e985e9c5146104135761012c565b806370a08231146102b157806380b0d8c6146102e157806395d89b4114610311578063a22cb4651461032f578063b88d4fde1461034b5761012c565b806323b872dd116100f457806323b872dd146101e95780632f745c591461020557806342842e0e146102355780634f6ccce7146102515780636352211e146102815761012c565b806301ffc9a71461013157806306fdde0314610161578063081812fc1461017f578063095ea7b3146101af57806318160ddd146101cb575b600080fd5b61014b600480360361014691908101906120c9565b610443565b6040516101589190612a6d565b60405180910390f35b6101696104aa565b6040516101769190612aaa565b60405180910390f35b6101996004803603610194919081019061215c565b61054c565b6040516101a691906129e4565b60405180910390f35b6101c960048036036101c4919081019061208d565b6105d1565b005b6101d361077e565b6040516101e09190612d0c565b60405180910390f35b61020360048036036101fe9190810190611f87565b61078b565b005b61021f600480360361021a919081019061208d565b6107e4565b60405161022c9190612d0c565b60405180910390f35b61024f600480360361024a9190810190611f87565b61088d565b005b61026b6004803603610266919081019061215c565b6108ad565b6040516102789190612d0c565b60405180910390f35b61029b6004803603610296919081019061215c565b610917565b6040516102a891906129e4565b60405180910390f35b6102cb60048036036102c69190810190611f22565b6109c9565b6040516102d89190612d0c565b60405180910390f35b6102fb60048036036102f69190810190611f22565b610a88565b6040516103089190612a4b565b60405180910390f35b610319610c46565b6040516103269190612aaa565b60405180910390f35b61034960048036036103449190810190612051565b610ce8565b005b61036560048036036103609190810190611fd6565b610e54565b005b610381600480360361037c919081019061215c565b610eb0565b60405161038e9190612a88565b60405180910390f35b6103b160048036036103ac919081019061215c565b610f69565b6040516103be9190612aaa565b60405180910390f35b6103e160048036036103dc919081019061211b565b611066565b005b6103fd60048036036103f8919081019061215c565b611178565b60405161040a91906129e4565b60405180910390f35b61042d60048036036104289190810190611f4b565b6111ab565b60405161043a9190612a6d565b60405180910390f35b6000806000837bffffffffffffffffffffffffffffffffffffffffffffffffffffffff19167bffffffffffffffffffffffffffffffffffffffffffffffffffffffff1916815260200190815260200160002060009054906101000a900460ff169050919050565b606060098054600181600116156101000203166002900480601f0160208091040260200160405190810160405280929190818152602001828054600181600116156101000203166002900480156105425780601f1061051757610100808354040283529160200191610542565b820191906000526020600020905b81548152906001019060200180831161052557829003601f168201915b5050505050905090565b60006105578261123f565b610596576040517f08c379a000000000000000000000000000000000000000000000000000000000815260040161058d90612c4c565b60405180910390fd5b6002600083815260200190815260200160002060009054906101000a900473ffffffffffffffffffffffffffffffffffffffff169050919050565b60006105dc82610917565b90508073ffffffffffffffffffffffffffffffffffffffff168373ffffffffffffffffffffffffffffffffffffffff16141561064d576040517f08c379a000000000000000000000000000000000000000000000000000000000815260040161064490612cac565b60405180910390fd5b8073ffffffffffffffffffffffffffffffffffffffff163373ffffffffffffffffffffffffffffffffffffffff16148061068d575061068c81336111ab565b5b6106cc576040517f08c379a00000000000000000000000000000000000000000000000000000000081526004016106c390612bcc565b60405180910390fd5b826002600084815260200190815260200160002060006101000a81548173ffffffffffffffffffffffffffffffffffffffff021916908373ffffffffffffffffffffffffffffffffffffffff160217905550818373ffffffffffffffffffffffffffffffffffffffff168273ffffffffffffffffffffffffffffffffffffffff167f8c5be1e5ebec7d5bd14f71427d1e84f3dd0314c0f7b2291e5b200ac8c7c3b92560405160405180910390a4505050565b6000600780549050905090565b61079533826112b1565b6107d4576040517f08c379a00000000000000000000000000000000000000000000000000000000081526004016107cb90612ccc565b60405180910390fd5b6107df83838361138f565b505050565b60006107ef836109c9565b8210610830576040517f08c379a000000000000000000000000000000000000000000000000000000000815260040161082790612acc565b60405180910390fd5b600560008473ffffffffffffffffffffffffffffffffffffffff1673ffffffffffffffffffffffffffffffffffffffff168152602001908152602001600020828154811061087a57fe5b9060005260206000200154905092915050565b6108a883838360405180602001604052806000815250610e54565b505050565b60006108b761077e565b82106108f8576040517f08c379a00000000000000000000000000000000000000000000000000000000081526004016108ef90612cec565b60405180910390fd5b6007828154811061090557fe5b90600052602060002001549050919050565b6000806001600084815260200190815260200160002060009054906101000a900473ffffffffffffffffffffffffffffffffffffffff169050600073ffffffffffffffffffffffffffffffffffffffff168173ffffffffffffffffffffffffffffffffffffffff1614156109c0576040517f08c379a00000000000000000000000000000000000000000000000000000000081526004016109b790612c0c565b60405180910390fd5b80915050919050565b60008073ffffffffffffffffffffffffffffffffffffffff168273ffffffffffffffffffffffffffffffffffffffff161415610a3a576040517f08c379a0000000000000000000000000000000000000000000000000000000008152600401610a3190612bec565b60405180910390fd5b610a81600360008473ffffffffffffffffffffffffffffffffffffffff1673ffffffffffffffffffffffffffffffffffffffff1681526020019081526020016000206113b3565b9050919050565b60606000610a95836109c9565b9050606081604051908082528060200260200182016040528015610acd57816020015b6060815260200190600190039081610ab85790505b509050600080905060008090505b600c80549050811015610c3a578573ffffffffffffffffffffffffffffffffffffffff16600e600083815260200190815260200160002060009054906101000a900473ffffffffffffffffffffffffffffffffffffffff1673ffffffffffffffffffffffffffffffffffffffff161415610c2d57600c8181548110610b5c57fe5b906000526020600020018054600181600116156101000203166002900480601f016020809104026020016040519081016040528092919081815260200182805460018160011615610100020316600290048015610bfa5780601f10610bcf57610100808354040283529160200191610bfa565b820191906000526020600020905b815481529060010190602001808311610bdd57829003601f168201915b5050505050838381518110610c0b57fe5b6020026020010181905250610c2a6001836113c190919063ffffffff16565b91505b8080600101915050610adb565b50819350505050919050565b6060600a8054600181600116156101000203166002900480601f016020809104026020016040519081016040528092919081815260200182805460018160011615610100020316600290048015610cde5780601f10610cb357610100808354040283529160200191610cde565b820191906000526020600020905b815481529060010190602001808311610cc157829003601f168201915b5050505050905090565b3373ffffffffffffffffffffffffffffffffffffffff168273ffffffffffffffffffffffffffffffffffffffff161415610d57576040517f08c379a0000000000000000000000000000000000000000000000000000000008152600401610d4e90612b6c565b60405180910390fd5b80600460003373ffffffffffffffffffffffffffffffffffffffff1673ffffffffffffffffffffffffffffffffffffffff16815260200190815260200160002060008473ffffffffffffffffffffffffffffffffffffffff1673ffffffffffffffffffffffffffffffffffffffff16815260200190815260200160002060006101000a81548160ff0219169083151502179055508173ffffffffffffffffffffffffffffffffffffffff163373ffffffffffffffffffffffffffffffffffffffff167f17307eab39ab6107e8899845ad3d59bd9653f200f220920489ca2b5937696c3183604051610e489190612a6d565b60405180910390a35050565b610e5f84848461078b565b610e6b84848484611416565b610eaa576040517f08c379a0000000000000000000000000000000000000000000000000000000008152600401610ea190612aec565b60405180910390fd5b50505050565b600c8181548110610ebd57fe5b906000526020600020016000915090508054600181600116156101000203166002900480601f016020809104026020016040519081016040528092919081815260200182805460018160011615610100020316600290048015610f615780601f10610f3657610100808354040283529160200191610f61565b820191906000526020600020905b815481529060010190602001808311610f4457829003601f168201915b505050505081565b6060610f748261123f565b610fb3576040517f08c379a0000000000000000000000000000000000000000000000000000000008152600401610faa90612c8c565b60405180910390fd5b600b60008381526020019081526020016000208054600181600116156101000203166002900480601f01602080910402602001604051908101604052809291908181526020018280546001816001161561010002031660029004801561105a5780601f1061102f5761010080835404028352916020019161105a565b820191906000526020600020905b81548152906001019060200180831161103d57829003601f168201915b50505050509050919050565b600d8160405161107691906129cd565b908152602001604051809103902060009054906101000a900460ff161561109c57600080fd5b6000600c8290806001815401808255809150509060018203906000526020600020016000909192909190915090805190602001906110db929190611d40565b5090506110e8338261152d565b6001600d836040516110fa91906129cd565b908152602001604051809103902060006101000a81548160ff02191690831515021790555033600e600060018403815260200190815260200160002060006101000a81548173ffffffffffffffffffffffffffffffffffffffff021916908373ffffffffffffffffffffffffffffffffffffffff1602179055505050565b600e6020528060005260406000206000915054906101000a900473ffffffffffffffffffffffffffffffffffffffff1681565b6000600460008473ffffffffffffffffffffffffffffffffffffffff1673ffffffffffffffffffffffffffffffffffffffff16815260200190815260200160002060008373ffffffffffffffffffffffffffffffffffffffff1673ffffffffffffffffffffffffffffffffffffffff16815260200190815260200160002060009054906101000a900460ff16905092915050565b6000806001600084815260200190815260200160002060009054906101000a900473ffffffffffffffffffffffffffffffffffffffff169050600073ffffffffffffffffffffffffffffffffffffffff168173ffffffffffffffffffffffffffffffffffffffff161415915050919050565b60006112bc8261123f565b6112fb576040517f08c379a00000000000000000000000000000000000000000000000000000000081526004016112f290612bac565b60405180910390fd5b600061130683610917565b90508073ffffffffffffffffffffffffffffffffffffffff168473ffffffffffffffffffffffffffffffffffffffff16148061137557508373ffffffffffffffffffffffffffffffffffffffff1661135d8461054c565b73ffffffffffffffffffffffffffffffffffffffff16145b80611386575061138581856111ab565b5b91505092915050565b61139a83838361154e565b6113a4838261177d565b6113ae828261191b565b505050565b600081600001549050919050565b60008082840190508381101561140c576040517f08c379a000000000000000000000000000000000000000000000000000000000815260040161140390612b2c565b60405180910390fd5b8091505092915050565b60006114378473ffffffffffffffffffffffffffffffffffffffff166119e2565b6114445760019050611525565b60008473ffffffffffffffffffffffffffffffffffffffff1663150b7a02338887876040518563ffffffff1660e01b815260040161148594939291906129ff565b602060405180830381600087803b15801561149f57600080fd5b505af11580156114b3573d6000803e3d6000fd5b505050506040513d601f19601f820116820180604052506114d791908101906120f2565b905063150b7a0260e01b7bffffffffffffffffffffffffffffffffffffffffffffffffffffffff1916817bffffffffffffffffffffffffffffffffffffffffffffffffffffffff1916149150505b949350505050565b61153782826119f5565b611541828261191b565b61154a81611ba7565b5050565b8273ffffffffffffffffffffffffffffffffffffffff1661156e82610917565b73ffffffffffffffffffffffffffffffffffffffff16146115c4576040517f08c379a00000000000000000000000000000000000000000000000000000000081526004016115bb90612c6c565b60405180910390fd5b600073ffffffffffffffffffffffffffffffffffffffff168273ffffffffffffffffffffffffffffffffffffffff161415611634576040517f08c379a000000000000000000000000000000000000000000000000000000000815260040161162b90612b4c565b60405180910390fd5b61163d81611bf3565b611684600360008573ffffffffffffffffffffffffffffffffffffffff1673ffffffffffffffffffffffffffffffffffffffff168152602001908152602001600020611cb1565b6116cb600360008473ffffffffffffffffffffffffffffffffffffffff1673ffffffffffffffffffffffffffffffffffffffff168152602001908152602001600020611cd4565b816001600083815260200190815260200160002060006101000a81548173ffffffffffffffffffffffffffffffffffffffff021916908373ffffffffffffffffffffffffffffffffffffffff160217905550808273ffffffffffffffffffffffffffffffffffffffff168473ffffffffffffffffffffffffffffffffffffffff167fddf252ad1be2c89b69c2b068fc378daa952ba7f163c4a11628f55a4df523b3ef60405160405180910390a4505050565b60006117d56001600560008673ffffffffffffffffffffffffffffffffffffffff1673ffffffffffffffffffffffffffffffffffffffff16815260200190815260200160002080549050611cea90919063ffffffff16565b90506000600660008481526020019081526020016000205490508181146118c2576000600560008673ffffffffffffffffffffffffffffffffffffffff1673ffffffffffffffffffffffffffffffffffffffff168152602001908152602001600020838154811061184257fe5b9060005260206000200154905080600560008773ffffffffffffffffffffffffffffffffffffffff1673ffffffffffffffffffffffffffffffffffffffff168152602001908152602001600020838154811061189a57fe5b9060005260206000200181905550816006600083815260200190815260200160002081905550505b600560008573ffffffffffffffffffffffffffffffffffffffff1673ffffffffffffffffffffffffffffffffffffffff1681526020019081526020016000208054809190600190036119149190611dc0565b5050505050565b600560008373ffffffffffffffffffffffffffffffffffffffff1673ffffffffffffffffffffffffffffffffffffffff168152602001908152602001600020805490506006600083815260200190815260200160002081905550600560008373ffffffffffffffffffffffffffffffffffffffff1673ffffffffffffffffffffffffffffffffffffffff1681526020019081526020016000208190806001815401808255809150509060018203906000526020600020016000909192909190915055505050565b600080823b905060008111915050919050565b600073ffffffffffffffffffffffffffffffffffffffff168273ffffffffffffffffffffffffffffffffffffffff161415611a65576040517f08c379a0000000000000000000000000000000000000000000000000000000008152600401611a5c90612c2c565b60405180910390fd5b611a6e8161123f565b15611aae576040517f08c379a0000000000000000000000000000000000000000000000000000000008152600401611aa590612b0c565b60405180910390fd5b816001600083815260200190815260200160002060006101000a81548173ffffffffffffffffffffffffffffffffffffffff021916908373ffffffffffffffffffffffffffffffffffffffff160217905550611b47600360008473ffffffffffffffffffffffffffffffffffffffff1673ffffffffffffffffffffffffffffffffffffffff168152602001908152602001600020611cd4565b808273ffffffffffffffffffffffffffffffffffffffff16600073ffffffffffffffffffffffffffffffffffffffff167fddf252ad1be2c89b69c2b068fc378daa952ba7f163c4a11628f55a4df523b3ef60405160405180910390a45050565b6007805490506008600083815260200190815260200160002081905550600781908060018154018082558091505090600182039060005260206000200160009091929091909150555050565b600073ffffffffffffffffffffffffffffffffffffffff166002600083815260200190815260200160002060009054906101000a900473ffffffffffffffffffffffffffffffffffffffff1673ffffffffffffffffffffffffffffffffffffffff1614611cae5760006002600083815260200190815260200160002060006101000a81548173ffffffffffffffffffffffffffffffffffffffff021916908373ffffffffffffffffffffffffffffffffffffffff1602179055505b50565b611cc960018260000154611cea90919063ffffffff16565b816000018190555050565b6001816000016000828254019250508190555050565b600082821115611d2f576040517f08c379a0000000000000000000000000000000000000000000000000000000008152600401611d2690612b8c565b60405180910390fd5b600082840390508091505092915050565b828054600181600116156101000203166002900490600052602060002090601f016020900481019282601f10611d8157805160ff1916838001178555611daf565b82800160010185558215611daf579182015b82811115611dae578251825591602001919060010190611d93565b5b509050611dbc9190611dec565b5090565b815481835581811115611de757818360005260206000209182019101611de69190611dec565b5b505050565b611e0e91905b80821115611e0a576000816000905550600101611df2565b5090565b90565b600081359050611e2081612f41565b92915050565b600081359050611e3581612f58565b92915050565b600081359050611e4a81612f6f565b92915050565b600081519050611e5f81612f6f565b92915050565b600082601f830112611e7657600080fd5b8135611e89611e8482612d54565b612d27565b91508082526020830160208301858383011115611ea557600080fd5b611eb0838284612eee565b50505092915050565b600082601f830112611eca57600080fd5b8135611edd611ed882612d80565b612d27565b91508082526020830160208301858383011115611ef957600080fd5b611f04838284612eee565b50505092915050565b600081359050611f1c81612f86565b92915050565b600060208284031215611f3457600080fd5b6000611f4284828501611e11565b91505092915050565b60008060408385031215611f5e57600080fd5b6000611f6c85828601611e11565b9250506020611f7d85828601611e11565b9150509250929050565b600080600060608486031215611f9c57600080fd5b6000611faa86828701611e11565b9350506020611fbb86828701611e11565b9250506040611fcc86828701611f0d565b9150509250925092565b60008060008060808587031215611fec57600080fd5b6000611ffa87828801611e11565b945050602061200b87828801611e11565b935050604061201c87828801611f0d565b925050606085013567ffffffffffffffff81111561203957600080fd5b61204587828801611e65565b91505092959194509250565b6000806040838503121561206457600080fd5b600061207285828601611e11565b925050602061208385828601611e26565b9150509250929050565b600080604083850312156120a057600080fd5b60006120ae85828601611e11565b92505060206120bf85828601611f0d565b9150509250929050565b6000602082840312156120db57600080fd5b60006120e984828501611e3b565b91505092915050565b60006020828403121561210457600080fd5b600061211284828501611e50565b91505092915050565b60006020828403121561212d57600080fd5b600082013567ffffffffffffffff81111561214757600080fd5b61215384828501611eb9565b91505092915050565b60006020828403121561216e57600080fd5b600061217c84828501611f0d565b91505092915050565b600061219183836122de565b905092915050565b6121a281612eb8565b82525050565b6121b181612e44565b82525050565b60006121c282612dbc565b6121cc8185612df5565b9350836020820285016121de85612dac565b8060005b8581101561221a57848403895281516121fb8582612185565b945061220683612de8565b925060208a019950506001810190506121e2565b50829750879550505050505092915050565b61223581612e56565b82525050565b600061224682612dc7565b6122508185612e06565b9350612260818560208601612efd565b61226981612f30565b840191505092915050565b600061227f82612ddd565b6122898185612e28565b9350612299818560208601612efd565b6122a281612f30565b840191505092915050565b60006122b882612ddd565b6122c28185612e39565b93506122d2818560208601612efd565b80840191505092915050565b60006122e982612dd2565b6122f38185612e17565b9350612303818560208601612efd565b61230c81612f30565b840191505092915050565b600061232282612dd2565b61232c8185612e28565b935061233c818560208601612efd565b61234581612f30565b840191505092915050565b600061235d602b83612e28565b91507f455243373231456e756d657261626c653a206f776e657220696e646578206f7560008301527f74206f6620626f756e64730000000000000000000000000000000000000000006020830152604082019050919050565b60006123c3603283612e28565b91507f4552433732313a207472616e7366657220746f206e6f6e20455243373231526560008301527f63656976657220696d706c656d656e74657200000000000000000000000000006020830152604082019050919050565b6000612429601c83612e28565b91507f4552433732313a20746f6b656e20616c7265616479206d696e746564000000006000830152602082019050919050565b6000612469601b83612e28565b91507f536166654d6174683a206164646974696f6e206f766572666c6f7700000000006000830152602082019050919050565b60006124a9602483612e28565b91507f4552433732313a207472616e7366657220746f20746865207a65726f2061646460008301527f72657373000000000000000000000000000000000000000000000000000000006020830152604082019050919050565b600061250f601983612e28565b91507f4552433732313a20617070726f766520746f2063616c6c6572000000000000006000830152602082019050919050565b600061254f601e83612e28565b91507f536166654d6174683a207375627472616374696f6e206f766572666c6f7700006000830152602082019050919050565b600061258f602c83612e28565b91507f4552433732313a206f70657261746f7220717565727920666f72206e6f6e657860008301527f697374656e7420746f6b656e00000000000000000000000000000000000000006020830152604082019050919050565b60006125f5603883612e28565b91507f4552433732313a20617070726f76652063616c6c6572206973206e6f74206f7760008301527f6e6572206e6f7220617070726f76656420666f7220616c6c00000000000000006020830152604082019050919050565b600061265b602a83612e28565b91507f4552433732313a2062616c616e636520717565727920666f7220746865207a6560008301527f726f2061646472657373000000000000000000000000000000000000000000006020830152604082019050919050565b60006126c1602983612e28565b91507f4552433732313a206f776e657220717565727920666f72206e6f6e657869737460008301527f656e7420746f6b656e00000000000000000000000000000000000000000000006020830152604082019050919050565b6000612727602083612e28565b91507f4552433732313a206d696e7420746f20746865207a65726f20616464726573736000830152602082019050919050565b6000612767602c83612e28565b91507f4552433732313a20617070726f76656420717565727920666f72206e6f6e657860008301527f697374656e7420746f6b656e00000000000000000000000000000000000000006020830152604082019050919050565b60006127cd602983612e28565b91507f4552433732313a207472616e73666572206f6620746f6b656e2074686174206960008301527f73206e6f74206f776e00000000000000000000000000000000000000000000006020830152604082019050919050565b6000612833602f83612e28565b91507f4552433732314d657461646174613a2055524920717565727920666f72206e6f60008301527f6e6578697374656e7420746f6b656e00000000000000000000000000000000006020830152604082019050919050565b6000612899602183612e28565b91507f4552433732313a20617070726f76616c20746f2063757272656e74206f776e6560008301527f72000000000000000000000000000000000000000000000000000000000000006020830152604082019050919050565b60006128ff603183612e28565b91507f4552433732313a207472616e736665722063616c6c6572206973206e6f74206f60008301527f776e6572206e6f7220617070726f7665640000000000000000000000000000006020830152604082019050919050565b6000612965602c83612e28565b91507f455243373231456e756d657261626c653a20676c6f62616c20696e646578206f60008301527f7574206f6620626f756e647300000000000000000000000000000000000000006020830152604082019050919050565b6129c781612eae565b82525050565b60006129d982846122ad565b915081905092915050565b60006020820190506129f960008301846121a8565b92915050565b6000608082019050612a146000830187612199565b612a2160208301866121a8565b612a2e60408301856129be565b8181036060830152612a40818461223b565b905095945050505050565b60006020820190508181036000830152612a6581846121b7565b905092915050565b6000602082019050612a82600083018461222c565b92915050565b60006020820190508181036000830152612aa28184612317565b905092915050565b60006020820190508181036000830152612ac48184612274565b905092915050565b60006020820190508181036000830152612ae581612350565b9050919050565b60006020820190508181036000830152612b05816123b6565b9050919050565b60006020820190508181036000830152612b258161241c565b9050919050565b60006020820190508181036000830152612b458161245c565b9050919050565b60006020820190508181036000830152612b658161249c565b9050919050565b60006020820190508181036000830152612b8581612502565b9050919050565b60006020820190508181036000830152612ba581612542565b9050919050565b60006020820190508181036000830152612bc581612582565b9050919050565b60006020820190508181036000830152612be5816125e8565b9050919050565b60006020820190508181036000830152612c058161264e565b9050919050565b60006020820190508181036000830152612c25816126b4565b9050919050565b60006020820190508181036000830152612c458161271a565b9050919050565b60006020820190508181036000830152612c658161275a565b9050919050565b60006020820190508181036000830152612c85816127c0565b9050919050565b60006020820190508181036000830152612ca581612826565b9050919050565b60006020820190508181036000830152612cc58161288c565b9050919050565b60006020820190508181036000830152612ce5816128f2565b9050919050565b60006020820190508181036000830152612d0581612958565b9050919050565b6000602082019050612d2160008301846129be565b92915050565b6000604051905081810181811067ffffffffffffffff82111715612d4a57600080fd5b8060405250919050565b600067ffffffffffffffff821115612d6b57600080fd5b601f19601f8301169050602081019050919050565b600067ffffffffffffffff821115612d9757600080fd5b601f19601f8301169050602081019050919050565b6000819050602082019050919050565b600081519050919050565b600081519050919050565b600081519050919050565b600081519050919050565b6000602082019050919050565b600082825260208201905092915050565b600082825260208201905092915050565b600082825260208201905092915050565b600082825260208201905092915050565b600081905092915050565b6000612e4f82612e8e565b9050919050565b60008115159050919050565b60007fffffffff0000000000000000000000000000000000000000000000000000000082169050919050565b600073ffffffffffffffffffffffffffffffffffffffff82169050919050565b6000819050919050565b6000612ec382612eca565b9050919050565b6000612ed582612edc565b9050919050565b6000612ee782612e8e565b9050919050565b82818337600083830152505050565b60005b83811015612f1b578082015181840152602081019050612f00565b83811115612f2a576000848401525b50505050565b6000601f19601f8301169050919050565b612f4a81612e44565b8114612f5557600080fd5b50565b612f6181612e56565b8114612f6c57600080fd5b50565b612f7881612e62565b8114612f8357600080fd5b50565b612f8f81612eae565b8114612f9a57600080fd5b5056fea365627a7a7231582074bd71ea93fb11272ad65d251f122a46f1d5342ee39f7ab6e379920bfc4bc4426c6578706572696d656e74616cf564736f6c63430005100040",
  "source": "pragma solidity 0.5.16;\r\npragma experimental ABIEncoderV2;\r\n\r\nimport \"./ERC721Full.sol\";\r\n\r\ncontract Color is ERC721Full {\r\n    string[] public colors;\r\n    mapping(string => bool) _colorExists;\r\n    mapping(uint256 => address) public colorToOwner;\r\n\r\n    constructor() public ERC721Full(\"Color\", \"COLOR\") {}\r\n\r\n    // E.G. color = \"#FFFFFF\"\r\n    function mint(string memory _color) public {\r\n        require(!_colorExists[_color]);\r\n        uint256 _id = colors.push(_color);\r\n        _mint(msg.sender, _id);\r\n        _colorExists[_color] = true;\r\n        colorToOwner[_id - 1] = msg.sender;\r\n    }\r\n\r\n    function getColorsByOwner(address _owner)\r\n        external\r\n        view\r\n        returns (string[] memory)\r\n    {\r\n        uint256 ownerTokenCount = balanceOf(_owner);\r\n        string[] memory result = new string[](ownerTokenCount);\r\n        uint256 counter = 0;\r\n        for (uint256 i = 0; i < colors.length; i++) {\r\n            if (colorToOwner[i] == _owner) {\r\n                result[counter] = colors[i];\r\n                counter = counter.add(1);\r\n            }\r\n        }\r\n        return result;\r\n    }\r\n}\r\n",
  "sourcePath": "C:/Users/TungNT2K/Desktop/CryptoColor/src/contracts/Color.sol",
  "compiler": {
    "name": "solc",
    "version": "0.5.16+commit.9c3226ce.Emscripten.clang"
  },
  "schemaVersion": "3.4.1",
  "updatedAt": "2021-07-23T04:16:34.942Z",
  "networkType": "ethereum",
  "devdoc": {
    "methods": {
      "approve(address,uint256)": {
        "details": "Approves another address to transfer the given token ID The zero address indicates there is no approved address. There can only be one approved address per token at a given time. Can only be called by the token owner or an approved operator.",
        "params": {
          "to": "address to be approved for the given token ID",
          "tokenId": "uint256 ID of the token to be approved"
        }
      },
      "balanceOf(address)": {
        "details": "Gets the balance of the specified address.",
        "params": {
          "owner": "address to query the balance of"
        },
        "return": "uint256 representing the amount owned by the passed address"
      },
      "getApproved(uint256)": {
        "details": "Gets the approved address for a token ID, or zero if no address set Reverts if the token ID does not exist.",
        "params": {
          "tokenId": "uint256 ID of the token to query the approval of"
        },
        "return": "address currently approved for the given token ID"
      },
      "isApprovedForAll(address,address)": {
        "details": "Tells whether an operator is approved by a given owner.",
        "params": {
          "operator": "operator address which you want to query the approval of",
          "owner": "owner address which you want to query the approval of"
        },
        "return": "bool whether the given operator is approved by the given owner"
      },
      "name()": {
        "details": "Gets the token name.",
        "return": "string representing the token name"
      },
      "ownerOf(uint256)": {
        "details": "Gets the owner of the specified token ID.",
        "params": {
          "tokenId": "uint256 ID of the token to query the owner of"
        },
        "return": "address currently marked as the owner of the given token ID"
      },
      "safeTransferFrom(address,address,uint256)": {
        "details": "Safely transfers the ownership of a given token ID to another address If the target address is a contract, it must implement `onERC721Received`, which is called upon a safe transfer, and return the magic value `bytes4(keccak256(\"onERC721Received(address,address,uint256,bytes)\"))`; otherwise, the transfer is reverted. Requires the msg.sender to be the owner, approved, or operator",
        "params": {
          "from": "current owner of the token",
          "to": "address to receive the ownership of the given token ID",
          "tokenId": "uint256 ID of the token to be transferred"
        }
      },
      "safeTransferFrom(address,address,uint256,bytes)": {
        "details": "Safely transfers the ownership of a given token ID to another address If the target address is a contract, it must implement `onERC721Received`, which is called upon a safe transfer, and return the magic value `bytes4(keccak256(\"onERC721Received(address,address,uint256,bytes)\"))`; otherwise, the transfer is reverted. Requires the msg.sender to be the owner, approved, or operator",
        "params": {
          "_data": "bytes data to send along with a safe transfer check",
          "from": "current owner of the token",
          "to": "address to receive the ownership of the given token ID",
          "tokenId": "uint256 ID of the token to be transferred"
        }
      },
      "setApprovalForAll(address,bool)": {
        "details": "Sets or unsets the approval of a given operator An operator is allowed to transfer all tokens of the sender on their behalf.",
        "params": {
          "approved": "representing the status of the approval to be set",
          "to": "operator address to set the approval"
        }
      },
      "supportsInterface(bytes4)": {
        "details": "See `IERC165.supportsInterface`.      * Time complexity O(1), guaranteed to always use less than 30 000 gas."
      },
      "symbol()": {
        "details": "Gets the token symbol.",
        "return": "string representing the token symbol"
      },
      "tokenByIndex(uint256)": {
        "details": "Gets the token ID at a given index of all the tokens in this contract Reverts if the index is greater or equal to the total number of tokens.",
        "params": {
          "index": "uint256 representing the index to be accessed of the tokens list"
        },
        "return": "uint256 token ID at the given index of the tokens list"
      },
      "tokenOfOwnerByIndex(address,uint256)": {
        "details": "Gets the token ID at a given index of the tokens list of the requested owner.",
        "params": {
          "index": "uint256 representing the index to be accessed of the requested tokens list",
          "owner": "address owning the tokens list to be accessed"
        },
        "return": "uint256 token ID at the given index of the tokens list owned by the requested address"
      },
      "tokenURI(uint256)": {
        "details": "Returns an URI for a given token ID. Throws if the token ID does not exist. May return an empty string.",
        "params": {
          "tokenId": "uint256 ID of the token to query"
        }
      },
      "totalSupply()": {
        "details": "Gets the total amount of tokens stored by the contract.",
        "return": "uint256 representing the total amount of tokens"
      },
      "transferFrom(address,address,uint256)": {
        "details": "Transfers the ownership of a given token ID to another address. Usage of this method is discouraged, use `safeTransferFrom` whenever possible. Requires the msg.sender to be the owner, approved, or operator.",
        "params": {
          "from": "current owner of the token",
          "to": "address to receive the ownership of the given token ID",
          "tokenId": "uint256 ID of the token to be transferred"
        }
      }
    }
  },
  "userdoc": {
    "methods": {}
  }
}